{
  "_format": "hh-sol-artifact-1",
  "contractName": "Domains",
  "sourceName": "contracts/Domain.sol",
  "abi": [
    {
      "inputs": [
        {
          "internalType": "string",
          "name": "_tld",
          "type": "string"
        }
      ],
      "stateMutability": "payable",
      "type": "constructor"
    },
    {
      "anonymous": false,
      "inputs": [
        {
          "indexed": true,
          "internalType": "address",
          "name": "owner",
          "type": "address"
        },
        {
          "indexed": true,
          "internalType": "address",
          "name": "approved",
          "type": "address"
        },
        {
          "indexed": true,
          "internalType": "uint256",
          "name": "tokenId",
          "type": "uint256"
        }
      ],
      "name": "Approval",
      "type": "event"
    },
    {
      "anonymous": false,
      "inputs": [
        {
          "indexed": true,
          "internalType": "address",
          "name": "owner",
          "type": "address"
        },
        {
          "indexed": true,
          "internalType": "address",
          "name": "operator",
          "type": "address"
        },
        {
          "indexed": false,
          "internalType": "bool",
          "name": "approved",
          "type": "bool"
        }
      ],
      "name": "ApprovalForAll",
      "type": "event"
    },
    {
      "anonymous": false,
      "inputs": [
        {
          "indexed": true,
          "internalType": "address",
          "name": "from",
          "type": "address"
        },
        {
          "indexed": true,
          "internalType": "address",
          "name": "to",
          "type": "address"
        },
        {
          "indexed": true,
          "internalType": "uint256",
          "name": "tokenId",
          "type": "uint256"
        }
      ],
      "name": "Transfer",
      "type": "event"
    },
    {
      "inputs": [
        {
          "internalType": "address",
          "name": "to",
          "type": "address"
        },
        {
          "internalType": "uint256",
          "name": "tokenId",
          "type": "uint256"
        }
      ],
      "name": "approve",
      "outputs": [],
      "stateMutability": "nonpayable",
      "type": "function"
    },
    {
      "inputs": [
        {
          "internalType": "address",
          "name": "owner",
          "type": "address"
        }
      ],
      "name": "balanceOf",
      "outputs": [
        {
          "internalType": "uint256",
          "name": "",
          "type": "uint256"
        }
      ],
      "stateMutability": "view",
      "type": "function"
    },
    {
      "inputs": [
        {
          "internalType": "string",
          "name": "",
          "type": "string"
        }
      ],
      "name": "domains",
      "outputs": [
        {
          "internalType": "address",
          "name": "",
          "type": "address"
        }
      ],
      "stateMutability": "view",
      "type": "function"
    },
    {
      "inputs": [
        {
          "internalType": "string",
          "name": "name",
          "type": "string"
        }
      ],
      "name": "getAddress",
      "outputs": [
        {
          "internalType": "address",
          "name": "",
          "type": "address"
        }
      ],
      "stateMutability": "view",
      "type": "function"
    },
    {
      "inputs": [
        {
          "internalType": "uint256",
          "name": "tokenId",
          "type": "uint256"
        }
      ],
      "name": "getApproved",
      "outputs": [
        {
          "internalType": "address",
          "name": "",
          "type": "address"
        }
      ],
      "stateMutability": "view",
      "type": "function"
    },
    {
      "inputs": [
        {
          "internalType": "string",
          "name": "name",
          "type": "string"
        }
      ],
      "name": "getPrice",
      "outputs": [
        {
          "internalType": "uint256",
          "name": "",
          "type": "uint256"
        }
      ],
      "stateMutability": "pure",
      "type": "function"
    },
    {
      "inputs": [
        {
          "internalType": "string",
          "name": "name",
          "type": "string"
        }
      ],
      "name": "getRecord",
      "outputs": [
        {
          "internalType": "string",
          "name": "",
          "type": "string"
        }
      ],
      "stateMutability": "view",
      "type": "function"
    },
    {
      "inputs": [
        {
          "internalType": "address",
          "name": "owner",
          "type": "address"
        },
        {
          "internalType": "address",
          "name": "operator",
          "type": "address"
        }
      ],
      "name": "isApprovedForAll",
      "outputs": [
        {
          "internalType": "bool",
          "name": "",
          "type": "bool"
        }
      ],
      "stateMutability": "view",
      "type": "function"
    },
    {
      "inputs": [],
      "name": "name",
      "outputs": [
        {
          "internalType": "string",
          "name": "",
          "type": "string"
        }
      ],
      "stateMutability": "view",
      "type": "function"
    },
    {
      "inputs": [
        {
          "internalType": "uint256",
          "name": "tokenId",
          "type": "uint256"
        }
      ],
      "name": "ownerOf",
      "outputs": [
        {
          "internalType": "address",
          "name": "",
          "type": "address"
        }
      ],
      "stateMutability": "view",
      "type": "function"
    },
    {
      "inputs": [
        {
          "internalType": "string",
          "name": "",
          "type": "string"
        }
      ],
      "name": "records",
      "outputs": [
        {
          "internalType": "string",
          "name": "",
          "type": "string"
        }
      ],
      "stateMutability": "view",
      "type": "function"
    },
    {
      "inputs": [
        {
          "internalType": "string",
          "name": "name",
          "type": "string"
        }
      ],
      "name": "register",
      "outputs": [],
      "stateMutability": "payable",
      "type": "function"
    },
    {
      "inputs": [
        {
          "internalType": "address",
          "name": "from",
          "type": "address"
        },
        {
          "internalType": "address",
          "name": "to",
          "type": "address"
        },
        {
          "internalType": "uint256",
          "name": "tokenId",
          "type": "uint256"
        }
      ],
      "name": "safeTransferFrom",
      "outputs": [],
      "stateMutability": "nonpayable",
      "type": "function"
    },
    {
      "inputs": [
        {
          "internalType": "address",
          "name": "from",
          "type": "address"
        },
        {
          "internalType": "address",
          "name": "to",
          "type": "address"
        },
        {
          "internalType": "uint256",
          "name": "tokenId",
          "type": "uint256"
        },
        {
          "internalType": "bytes",
          "name": "data",
          "type": "bytes"
        }
      ],
      "name": "safeTransferFrom",
      "outputs": [],
      "stateMutability": "nonpayable",
      "type": "function"
    },
    {
      "inputs": [
        {
          "internalType": "address",
          "name": "operator",
          "type": "address"
        },
        {
          "internalType": "bool",
          "name": "approved",
          "type": "bool"
        }
      ],
      "name": "setApprovalForAll",
      "outputs": [],
      "stateMutability": "nonpayable",
      "type": "function"
    },
    {
      "inputs": [
        {
          "internalType": "string",
          "name": "name",
          "type": "string"
        },
        {
          "internalType": "string",
          "name": "record",
          "type": "string"
        }
      ],
      "name": "setRecord",
      "outputs": [],
      "stateMutability": "nonpayable",
      "type": "function"
    },
    {
      "inputs": [
        {
          "internalType": "bytes4",
          "name": "interfaceId",
          "type": "bytes4"
        }
      ],
      "name": "supportsInterface",
      "outputs": [
        {
          "internalType": "bool",
          "name": "",
          "type": "bool"
        }
      ],
      "stateMutability": "view",
      "type": "function"
    },
    {
      "inputs": [],
      "name": "symbol",
      "outputs": [
        {
          "internalType": "string",
          "name": "",
          "type": "string"
        }
      ],
      "stateMutability": "view",
      "type": "function"
    },
    {
      "inputs": [],
      "name": "tld",
      "outputs": [
        {
          "internalType": "string",
          "name": "",
          "type": "string"
        }
      ],
      "stateMutability": "view",
      "type": "function"
    },
    {
      "inputs": [
        {
          "internalType": "uint256",
          "name": "tokenId",
          "type": "uint256"
        }
      ],
      "name": "tokenURI",
      "outputs": [
        {
          "internalType": "string",
          "name": "",
          "type": "string"
        }
      ],
      "stateMutability": "view",
      "type": "function"
    },
    {
      "inputs": [
        {
          "internalType": "address",
          "name": "from",
          "type": "address"
        },
        {
          "internalType": "address",
          "name": "to",
          "type": "address"
        },
        {
          "internalType": "uint256",
          "name": "tokenId",
          "type": "uint256"
        }
      ],
      "name": "transferFrom",
      "outputs": [],
      "stateMutability": "nonpayable",
      "type": "function"
    }
  ],
  "bytecode": "0x608060405260405180612e200160405280612df081526020016200433e612df09139600990805190602001906200003892919062000287565b506040518060400160405280600d81526020017f3c2f746578743e3c2f7376673e00000000000000000000000000000000000000815250600a90805190602001906200008692919062000287565b506040516200712e3803806200712e8339818101604052810190620000ac9190620004d4565b6040518060400160405280601081526020017f4c6974204e616d652053657276696365000000000000000000000000000000008152506040518060400160405280600381526020017f4c4e53000000000000000000000000000000000000000000000000000000000081525081600090805190602001906200013092919062000287565b5080600190805190602001906200014992919062000287565b50505080600890805190602001906200016492919062000287565b50620001b16040518060400160405280601881526020017f2573206e616d652073657276696365206465706c6f796564000000000000000081525082620001b860201b620013a61760201c565b5062000622565b6200025a8282604051602401620001d192919062000582565b6040516020818303038152906040527f4b5c4277000000000000000000000000000000000000000000000000000000007bffffffffffffffffffffffffffffffffffffffffffffffffffffffff19166020820180517bffffffffffffffffffffffffffffffffffffffffffffffffffffffff83818316178352505050506200025e60201b60201c565b5050565b60008151905060006a636f6e736f6c652e6c6f679050602083016000808483855afa5050505050565b8280546200029590620005ec565b90600052602060002090601f016020900481019282620002b9576000855562000305565b82601f10620002d457805160ff191683800117855562000305565b8280016001018555821562000305579182015b8281111562000304578251825591602001919060010190620002e7565b5b50905062000314919062000318565b5090565b5b808211156200033357600081600090555060010162000319565b5090565b6000604051905090565b600080fd5b600080fd5b600080fd5b600080fd5b6000601f19601f8301169050919050565b7f4e487b7100000000000000000000000000000000000000000000000000000000600052604160045260246000fd5b620003a08262000355565b810181811067ffffffffffffffff82111715620003c257620003c162000366565b5b80604052505050565b6000620003d762000337565b9050620003e5828262000395565b919050565b600067ffffffffffffffff82111562000408576200040762000366565b5b620004138262000355565b9050602081019050919050565b60005b838110156200044057808201518184015260208101905062000423565b8381111562000450576000848401525b50505050565b60006200046d6200046784620003ea565b620003cb565b9050828152602081018484840111156200048c576200048b62000350565b5b6200049984828562000420565b509392505050565b600082601f830112620004b957620004b86200034b565b5b8151620004cb84826020860162000456565b91505092915050565b600060208284031215620004ed57620004ec62000341565b5b600082015167ffffffffffffffff8111156200050e576200050d62000346565b5b6200051c84828501620004a1565b91505092915050565b600081519050919050565b600082825260208201905092915050565b60006200054e8262000525565b6200055a818562000530565b93506200056c81856020860162000420565b620005778162000355565b840191505092915050565b600060408201905081810360008301526200059e818562000541565b90508181036020830152620005b4818462000541565b90509392505050565b7f4e487b7100000000000000000000000000000000000000000000000000000000600052602260045260246000fd5b600060028204905060018216806200060557607f821691505b602082108114156200061c576200061b620005bd565b5b50919050565b613d0c80620006326000396000f3fe60806040526004361061012a5760003560e01c8063541e771d116100ab578063b88d4fde1161006f578063b88d4fde1461043c578063bf40fac114610465578063c1880a98146104a2578063c87b56dd146104cb578063e985e9c514610508578063f2c298be146105455761012a565b8063541e771d146103315780636352211e1461036e57806370a08231146103ab57806395d89b41146103e8578063a22cb465146104135761012a565b806323b872dd116100f257806323b872dd1461023a57806326449235146102635780632d551432146102a057806342842e0e146102cb578063524f3889146102f45761012a565b806301ffc9a71461012f57806306fdde031461016c578063081812fc14610197578063095ea7b3146101d457806311dd8845146101fd575b600080fd5b34801561013b57600080fd5b506101566004803603810190610151919061268d565b610561565b60405161016391906126d5565b60405180910390f35b34801561017857600080fd5b50610181610643565b60405161018e9190612789565b60405180910390f35b3480156101a357600080fd5b506101be60048036038101906101b991906127e1565b6106d5565b6040516101cb919061284f565b60405180910390f35b3480156101e057600080fd5b506101fb60048036038101906101f69190612896565b61071b565b005b34801561020957600080fd5b50610224600480360381019061021f919061293b565b610833565b6040516102319190612789565b60405180910390f35b34801561024657600080fd5b50610261600480360381019061025c9190612988565b6108e6565b005b34801561026f57600080fd5b5061028a60048036038101906102859190612b0b565b610946565b604051610297919061284f565b60405180910390f35b3480156102ac57600080fd5b506102b561098f565b6040516102c29190612789565b60405180910390f35b3480156102d757600080fd5b506102f260048036038101906102ed9190612988565b610a1d565b005b34801561030057600080fd5b5061031b6004803603810190610316919061293b565b610a3d565b6040516103289190612b63565b60405180910390f35b34801561033d57600080fd5b5061035860048036038101906103539190612b0b565b610ae8565b6040516103659190612789565b60405180910390f35b34801561037a57600080fd5b50610395600480360381019061039091906127e1565b610b9e565b6040516103a2919061284f565b60405180910390f35b3480156103b757600080fd5b506103d260048036038101906103cd9190612b7e565b610c50565b6040516103df9190612b63565b60405180910390f35b3480156103f457600080fd5b506103fd610d08565b60405161040a9190612789565b60405180910390f35b34801561041f57600080fd5b5061043a60048036038101906104359190612bd7565b610d9a565b005b34801561044857600080fd5b50610463600480360381019061045e9190612cb8565b610db0565b005b34801561047157600080fd5b5061048c6004803603810190610487919061293b565b610e12565b604051610499919061284f565b60405180910390f35b3480156104ae57600080fd5b506104c960048036038101906104c49190612d3b565b610e5d565b005b3480156104d757600080fd5b506104f260048036038101906104ed91906127e1565b610f0b565b6040516104ff9190612789565b60405180910390f35b34801561051457600080fd5b5061052f600480360381019061052a9190612dbc565b61101e565b60405161053c91906126d5565b60405180910390f35b61055f600480360381019061055a919061293b565b6110b2565b005b60007f80ac58cd000000000000000000000000000000000000000000000000000000007bffffffffffffffffffffffffffffffffffffffffffffffffffffffff1916827bffffffffffffffffffffffffffffffffffffffffffffffffffffffff1916148061062c57507f5b5e139f000000000000000000000000000000000000000000000000000000007bffffffffffffffffffffffffffffffffffffffffffffffffffffffff1916827bffffffffffffffffffffffffffffffffffffffffffffffffffffffff1916145b8061063c575061063b82611442565b5b9050919050565b60606000805461065290612e2b565b80601f016020809104026020016040519081016040528092919081815260200182805461067e90612e2b565b80156106cb5780601f106106a0576101008083540402835291602001916106cb565b820191906000526020600020905b8154815290600101906020018083116106ae57829003601f168201915b5050505050905090565b60006106e0826114ac565b6004600083815260200190815260200160002060009054906101000a900473ffffffffffffffffffffffffffffffffffffffff169050919050565b600061072682610b9e565b90508073ffffffffffffffffffffffffffffffffffffffff168373ffffffffffffffffffffffffffffffffffffffff161415610797576040517f08c379a000000000000000000000000000000000000000000000000000000000815260040161078e90612ecf565b60405180910390fd5b8073ffffffffffffffffffffffffffffffffffffffff166107b66114f7565b73ffffffffffffffffffffffffffffffffffffffff1614806107e557506107e4816107df6114f7565b61101e565b5b610824576040517f08c379a000000000000000000000000000000000000000000000000000000000815260040161081b90612f61565b60405180910390fd5b61082e83836114ff565b505050565b6060600c8383604051610847929190612fb1565b9081526020016040518091039020805461086090612e2b565b80601f016020809104026020016040519081016040528092919081815260200182805461088c90612e2b565b80156108d95780601f106108ae576101008083540402835291602001916108d9565b820191906000526020600020905b8154815290600101906020018083116108bc57829003601f168201915b5050505050905092915050565b6108f76108f16114f7565b826115b8565b610936576040517f08c379a000000000000000000000000000000000000000000000000000000000815260040161092d9061303c565b60405180910390fd5b61094183838361164d565b505050565b600b818051602081018201805184825260208301602085012081835280955050505050506000915054906101000a900473ffffffffffffffffffffffffffffffffffffffff1681565b6008805461099c90612e2b565b80601f01602080910402602001604051908101604052809291908181526020018280546109c890612e2b565b8015610a155780601f106109ea57610100808354040283529160200191610a15565b820191906000526020600020905b8154815290600101906020018083116109f857829003601f168201915b505050505081565b610a3883838360405180602001604052806000815250610db0565b505050565b600080610a95610a9085858080601f016020809104026020016040519081016040528093929190818152602001838380828437600081840152601f19601f820116905080830192505050505050506118b4565b6118e2565b905060008111610aa457600080fd5b6003811415610abd5766071afd498d0000915050610ae2565b6004811415610ad65766038d7ea4c68000915050610ae2565b6601c6bf526340009150505b92915050565b600c818051602081018201805184825260208301602085012081835280955050505050506000915090508054610b1d90612e2b565b80601f0160208091040260200160405190810160405280929190818152602001828054610b4990612e2b565b8015610b965780601f10610b6b57610100808354040283529160200191610b96565b820191906000526020600020905b815481529060010190602001808311610b7957829003601f168201915b505050505081565b6000806002600084815260200190815260200160002060009054906101000a900473ffffffffffffffffffffffffffffffffffffffff169050600073ffffffffffffffffffffffffffffffffffffffff168173ffffffffffffffffffffffffffffffffffffffff161415610c47576040517f08c379a0000000000000000000000000000000000000000000000000000000008152600401610c3e906130a8565b60405180910390fd5b80915050919050565b60008073ffffffffffffffffffffffffffffffffffffffff168273ffffffffffffffffffffffffffffffffffffffff161415610cc1576040517f08c379a0000000000000000000000000000000000000000000000000000000008152600401610cb89061313a565b60405180910390fd5b600360008373ffffffffffffffffffffffffffffffffffffffff1673ffffffffffffffffffffffffffffffffffffffff168152602001908152602001600020549050919050565b606060018054610d1790612e2b565b80601f0160208091040260200160405190810160405280929190818152602001828054610d4390612e2b565b8015610d905780601f10610d6557610100808354040283529160200191610d90565b820191906000526020600020905b815481529060010190602001808311610d7357829003601f168201915b5050505050905090565b610dac610da56114f7565b83836119f1565b5050565b610dc1610dbb6114f7565b836115b8565b610e00576040517f08c379a0000000000000000000000000000000000000000000000000000000008152600401610df79061303c565b60405180910390fd5b610e0c84848484611b5e565b50505050565b6000600b8383604051610e26929190612fb1565b908152602001604051809103902060009054906101000a900473ffffffffffffffffffffffffffffffffffffffff16905092915050565b3373ffffffffffffffffffffffffffffffffffffffff16600b8585604051610e86929190612fb1565b908152602001604051809103902060009054906101000a900473ffffffffffffffffffffffffffffffffffffffff1673ffffffffffffffffffffffffffffffffffffffff1614610ed557600080fd5b8181600c8686604051610ee9929190612fb1565b90815260200160405180910390209190610f049291906124de565b5050505050565b6060610f16826114ac565b6000600660008481526020019081526020016000208054610f3690612e2b565b80601f0160208091040260200160405190810160405280929190818152602001828054610f6290612e2b565b8015610faf5780601f10610f8457610100808354040283529160200191610faf565b820191906000526020600020905b815481529060010190602001808311610f9257829003601f168201915b505050505090506000610fc0611bba565b9050600081511415610fd6578192505050611019565b60008251111561100b578082604051602001610ff392919061318b565b60405160208183030381529060405292505050611019565b61101484611bd1565b925050505b919050565b6000600560008473ffffffffffffffffffffffffffffffffffffffff1673ffffffffffffffffffffffffffffffffffffffff16815260200190815260200160002060008373ffffffffffffffffffffffffffffffffffffffff1673ffffffffffffffffffffffffffffffffffffffff16815260200190815260200160002060009054906101000a900460ff16905092915050565b600073ffffffffffffffffffffffffffffffffffffffff16600b83836040516110dc929190612fb1565b908152602001604051809103902060009054906101000a900473ffffffffffffffffffffffffffffffffffffffff1673ffffffffffffffffffffffffffffffffffffffff161461112b57600080fd5b60006111378383610a3d565b90508034101561117c576040517f08c379a0000000000000000000000000000000000000000000000000000000008152600401611173906131fb565b60405180910390fd5b600083836008604051602001611194939291906132fb565b60405160208183030381529060405290506000600982600a6040516020016111be9392919061332c565b604051602081830303815290604052905060006111db6007611c39565b9050600061123461122f88888080601f016020809104026020016040519081016040528093929190818152602001838380828437600081840152601f19601f820116905080830192505050505050506118b4565b6118e2565b9050600061124182611c47565b905060006112798661125287611da8565b84604051602001611265939291906134d9565b604051602081830303815290604052611da8565b905060008160405160200161128e9190613582565b60405160208183030381529060405290506112de6040518060400160405280601181526020017f46696e616c20746f6b656e207572693a20000000000000000000000000000000815250826113a6565b6112e83386611f0c565b6112f28582611f2a565b33600b8b8b604051611305929190612fb1565b908152602001604051809103902060006101000a81548173ffffffffffffffffffffffffffffffffffffffff021916908373ffffffffffffffffffffffffffffffffffffffff16021790555061135b6007611f9e565b61139a6040518060400160405280601b81526020017f2573206861732072656769737465726564206120646f6d61696e21000000000081525033611fb4565b50505050505050505050565b61143e82826040516024016113bc9291906135a4565b6040516020818303038152906040527f4b5c4277000000000000000000000000000000000000000000000000000000007bffffffffffffffffffffffffffffffffffffffffffffffffffffffff19166020820180517bffffffffffffffffffffffffffffffffffffffffffffffffffffffff8381831617835250505050612050565b5050565b60007f01ffc9a7000000000000000000000000000000000000000000000000000000007bffffffffffffffffffffffffffffffffffffffffffffffffffffffff1916827bffffffffffffffffffffffffffffffffffffffffffffffffffffffff1916149050919050565b6114b581612079565b6114f4576040517f08c379a00000000000000000000000000000000000000000000000000000000081526004016114eb906130a8565b60405180910390fd5b50565b600033905090565b816004600083815260200190815260200160002060006101000a81548173ffffffffffffffffffffffffffffffffffffffff021916908373ffffffffffffffffffffffffffffffffffffffff160217905550808273ffffffffffffffffffffffffffffffffffffffff1661157283610b9e565b73ffffffffffffffffffffffffffffffffffffffff167f8c5be1e5ebec7d5bd14f71427d1e84f3dd0314c0f7b2291e5b200ac8c7c3b92560405160405180910390a45050565b6000806115c483610b9e565b90508073ffffffffffffffffffffffffffffffffffffffff168473ffffffffffffffffffffffffffffffffffffffff1614806116065750611605818561101e565b5b8061164457508373ffffffffffffffffffffffffffffffffffffffff1661162c846106d5565b73ffffffffffffffffffffffffffffffffffffffff16145b91505092915050565b8273ffffffffffffffffffffffffffffffffffffffff1661166d82610b9e565b73ffffffffffffffffffffffffffffffffffffffff16146116c3576040517f08c379a00000000000000000000000000000000000000000000000000000000081526004016116ba9061364d565b60405180910390fd5b600073ffffffffffffffffffffffffffffffffffffffff168273ffffffffffffffffffffffffffffffffffffffff161415611733576040517f08c379a000000000000000000000000000000000000000000000000000000000815260040161172a906136df565b60405180910390fd5b61173e8383836120e5565b6117496000826114ff565b6001600360008573ffffffffffffffffffffffffffffffffffffffff1673ffffffffffffffffffffffffffffffffffffffff1681526020019081526020016000206000828254611799919061372e565b925050819055506001600360008473ffffffffffffffffffffffffffffffffffffffff1673ffffffffffffffffffffffffffffffffffffffff16815260200190815260200160002060008282546117f09190613762565b92505081905550816002600083815260200190815260200160002060006101000a81548173ffffffffffffffffffffffffffffffffffffffff021916908373ffffffffffffffffffffffffffffffffffffffff160217905550808273ffffffffffffffffffffffffffffffffffffffff168473ffffffffffffffffffffffffffffffffffffffff167fddf252ad1be2c89b69c2b068fc378daa952ba7f163c4a11628f55a4df523b3ef60405160405180910390a46118af8383836120ea565b505050565b6118bc612564565b600060208301905060405180604001604052808451815260200182815250915050919050565b600080601f83602001516118f6919061372e565b9050600083600001518261190a9190613762565b9050600092505b808210156119ea57600060ff835116905060808160ff1610156119425760018361193b9190613762565b92506119d6565b60e08160ff1610156119625760028361195b9190613762565b92506119d5565b60f08160ff1610156119825760038361197b9190613762565b92506119d4565b60f88160ff1610156119a25760048361199b9190613762565b92506119d3565b60fc8160ff1610156119c2576005836119bb9190613762565b92506119d2565b6006836119cf9190613762565b92505b5b5b5b5b5082806119e2906137b8565b935050611911565b5050919050565b8173ffffffffffffffffffffffffffffffffffffffff168373ffffffffffffffffffffffffffffffffffffffff161415611a60576040517f08c379a0000000000000000000000000000000000000000000000000000000008152600401611a579061384d565b60405180910390fd5b80600560008573ffffffffffffffffffffffffffffffffffffffff1673ffffffffffffffffffffffffffffffffffffffff16815260200190815260200160002060008473ffffffffffffffffffffffffffffffffffffffff1673ffffffffffffffffffffffffffffffffffffffff16815260200190815260200160002060006101000a81548160ff0219169083151502179055508173ffffffffffffffffffffffffffffffffffffffff168373ffffffffffffffffffffffffffffffffffffffff167f17307eab39ab6107e8899845ad3d59bd9653f200f220920489ca2b5937696c3183604051611b5191906126d5565b60405180910390a3505050565b611b6984848461164d565b611b75848484846120ef565b611bb4576040517f08c379a0000000000000000000000000000000000000000000000000000000008152600401611bab906138df565b60405180910390fd5b50505050565b606060405180602001604052806000815250905090565b6060611bdc826114ac565b6000611be6611bba565b90506000815111611c065760405180602001604052806000815250611c31565b80611c1084611c47565b604051602001611c2192919061318b565b6040516020818303038152906040525b915050919050565b600081600001549050919050565b60606000821415611c8f576040518060400160405280600181526020017f30000000000000000000000000000000000000000000000000000000000000008152509050611da3565b600082905060005b60008214611cc1578080611caa906137b8565b915050600a82611cba919061392e565b9150611c97565b60008167ffffffffffffffff811115611cdd57611cdc6129e0565b5b6040519080825280601f01601f191660200182016040528015611d0f5781602001600182028036833780820191505090505b5090505b60008514611d9c57600182611d28919061372e565b9150600a85611d37919061395f565b6030611d439190613762565b60f81b818381518110611d5957611d58613990565b5b60200101907effffffffffffffffffffffffffffffffffffffffffffffffffffffffffffff1916908160001a905350600a85611d95919061392e565b9450611d13565b8093505050505b919050565b6060600082511415611dcb57604051806020016040528060008152509050611f07565b6000604051806060016040528060408152602001613c976040913990506000600360028551611dfa9190613762565b611e04919061392e565b6004611e1091906139bf565b67ffffffffffffffff811115611e2957611e286129e0565b5b6040519080825280601f01601f191660200182016040528015611e5b5781602001600182028036833780820191505090505b509050600182016020820185865187015b80821015611ec7576003820191508151603f8160121c168501518453600184019350603f81600c1c168501518453600184019350603f8160061c168501518453600184019350603f8116850151845360018401935050611e6c565b5050600386510660018114611ee35760028114611ef657611efe565b603d6001830353603d6002830353611efe565b603d60018303535b50505080925050505b919050565b611f26828260405180602001604052806000815250612286565b5050565b611f3382612079565b611f72576040517f08c379a0000000000000000000000000000000000000000000000000000000008152600401611f6990613a8b565b60405180910390fd5b80600660008481526020019081526020016000209080519060200190611f9992919061257e565b505050565b6001816000016000828254019250508190555050565b61204c8282604051602401611fca929190613aab565b6040516020818303038152906040527f319af333000000000000000000000000000000000000000000000000000000007bffffffffffffffffffffffffffffffffffffffffffffffffffffffff19166020820180517bffffffffffffffffffffffffffffffffffffffffffffffffffffffff8381831617835250505050612050565b5050565b60008151905060006a636f6e736f6c652e6c6f679050602083016000808483855afa5050505050565b60008073ffffffffffffffffffffffffffffffffffffffff166002600084815260200190815260200160002060009054906101000a900473ffffffffffffffffffffffffffffffffffffffff1673ffffffffffffffffffffffffffffffffffffffff1614159050919050565b505050565b505050565b60006121108473ffffffffffffffffffffffffffffffffffffffff166122e1565b15612279578373ffffffffffffffffffffffffffffffffffffffff1663150b7a026121396114f7565b8786866040518563ffffffff1660e01b815260040161215b9493929190613b30565b602060405180830381600087803b15801561217557600080fd5b505af19250505080156121a657506040513d601f19601f820116820180604052508101906121a39190613b91565b60015b612229573d80600081146121d6576040519150601f19603f3d011682016040523d82523d6000602084013e6121db565b606091505b50600081511415612221576040517f08c379a0000000000000000000000000000000000000000000000000000000008152600401612218906138df565b60405180910390fd5b805181602001fd5b63150b7a0260e01b7bffffffffffffffffffffffffffffffffffffffffffffffffffffffff1916817bffffffffffffffffffffffffffffffffffffffffffffffffffffffff19161491505061227e565b600190505b949350505050565b6122908383612304565b61229d60008484846120ef565b6122dc576040517f08c379a00000000000000000000000000000000000000000000000000000000081526004016122d3906138df565b60405180910390fd5b505050565b6000808273ffffffffffffffffffffffffffffffffffffffff163b119050919050565b600073ffffffffffffffffffffffffffffffffffffffff168273ffffffffffffffffffffffffffffffffffffffff161415612374576040517f08c379a000000000000000000000000000000000000000000000000000000000815260040161236b90613c0a565b60405180910390fd5b61237d81612079565b156123bd576040517f08c379a00000000000000000000000000000000000000000000000000000000081526004016123b490613c76565b60405180910390fd5b6123c9600083836120e5565b6001600360008473ffffffffffffffffffffffffffffffffffffffff1673ffffffffffffffffffffffffffffffffffffffff16815260200190815260200160002060008282546124199190613762565b92505081905550816002600083815260200190815260200160002060006101000a81548173ffffffffffffffffffffffffffffffffffffffff021916908373ffffffffffffffffffffffffffffffffffffffff160217905550808273ffffffffffffffffffffffffffffffffffffffff16600073ffffffffffffffffffffffffffffffffffffffff167fddf252ad1be2c89b69c2b068fc378daa952ba7f163c4a11628f55a4df523b3ef60405160405180910390a46124da600083836120ea565b5050565b8280546124ea90612e2b565b90600052602060002090601f01602090048101928261250c5760008555612553565b82601f1061252557803560ff1916838001178555612553565b82800160010185558215612553579182015b82811115612552578235825591602001919060010190612537565b5b5090506125609190612604565b5090565b604051806040016040528060008152602001600081525090565b82805461258a90612e2b565b90600052602060002090601f0160209004810192826125ac57600085556125f3565b82601f106125c557805160ff19168380011785556125f3565b828001600101855582156125f3579182015b828111156125f25782518255916020019190600101906125d7565b5b5090506126009190612604565b5090565b5b8082111561261d576000816000905550600101612605565b5090565b6000604051905090565b600080fd5b600080fd5b60007fffffffff0000000000000000000000000000000000000000000000000000000082169050919050565b61266a81612635565b811461267557600080fd5b50565b60008135905061268781612661565b92915050565b6000602082840312156126a3576126a261262b565b5b60006126b184828501612678565b91505092915050565b60008115159050919050565b6126cf816126ba565b82525050565b60006020820190506126ea60008301846126c6565b92915050565b600081519050919050565b600082825260208201905092915050565b60005b8381101561272a57808201518184015260208101905061270f565b83811115612739576000848401525b50505050565b6000601f19601f8301169050919050565b600061275b826126f0565b61276581856126fb565b935061277581856020860161270c565b61277e8161273f565b840191505092915050565b600060208201905081810360008301526127a38184612750565b905092915050565b6000819050919050565b6127be816127ab565b81146127c957600080fd5b50565b6000813590506127db816127b5565b92915050565b6000602082840312156127f7576127f661262b565b5b6000612805848285016127cc565b91505092915050565b600073ffffffffffffffffffffffffffffffffffffffff82169050919050565b60006128398261280e565b9050919050565b6128498161282e565b82525050565b60006020820190506128646000830184612840565b92915050565b6128738161282e565b811461287e57600080fd5b50565b6000813590506128908161286a565b92915050565b600080604083850312156128ad576128ac61262b565b5b60006128bb85828601612881565b92505060206128cc858286016127cc565b9150509250929050565b600080fd5b600080fd5b600080fd5b60008083601f8401126128fb576128fa6128d6565b5b8235905067ffffffffffffffff811115612918576129176128db565b5b602083019150836001820283011115612934576129336128e0565b5b9250929050565b600080602083850312156129525761295161262b565b5b600083013567ffffffffffffffff8111156129705761296f612630565b5b61297c858286016128e5565b92509250509250929050565b6000806000606084860312156129a1576129a061262b565b5b60006129af86828701612881565b93505060206129c086828701612881565b92505060406129d1868287016127cc565b9150509250925092565b600080fd5b7f4e487b7100000000000000000000000000000000000000000000000000000000600052604160045260246000fd5b612a188261273f565b810181811067ffffffffffffffff82111715612a3757612a366129e0565b5b80604052505050565b6000612a4a612621565b9050612a568282612a0f565b919050565b600067ffffffffffffffff821115612a7657612a756129e0565b5b612a7f8261273f565b9050602081019050919050565b82818337600083830152505050565b6000612aae612aa984612a5b565b612a40565b905082815260208101848484011115612aca57612ac96129db565b5b612ad5848285612a8c565b509392505050565b600082601f830112612af257612af16128d6565b5b8135612b02848260208601612a9b565b91505092915050565b600060208284031215612b2157612b2061262b565b5b600082013567ffffffffffffffff811115612b3f57612b3e612630565b5b612b4b84828501612add565b91505092915050565b612b5d816127ab565b82525050565b6000602082019050612b786000830184612b54565b92915050565b600060208284031215612b9457612b9361262b565b5b6000612ba284828501612881565b91505092915050565b612bb4816126ba565b8114612bbf57600080fd5b50565b600081359050612bd181612bab565b92915050565b60008060408385031215612bee57612bed61262b565b5b6000612bfc85828601612881565b9250506020612c0d85828601612bc2565b9150509250929050565b600067ffffffffffffffff821115612c3257612c316129e0565b5b612c3b8261273f565b9050602081019050919050565b6000612c5b612c5684612c17565b612a40565b905082815260208101848484011115612c7757612c766129db565b5b612c82848285612a8c565b509392505050565b600082601f830112612c9f57612c9e6128d6565b5b8135612caf848260208601612c48565b91505092915050565b60008060008060808587031215612cd257612cd161262b565b5b6000612ce087828801612881565b9450506020612cf187828801612881565b9350506040612d02878288016127cc565b925050606085013567ffffffffffffffff811115612d2357612d22612630565b5b612d2f87828801612c8a565b91505092959194509250565b60008060008060408587031215612d5557612d5461262b565b5b600085013567ffffffffffffffff811115612d7357612d72612630565b5b612d7f878288016128e5565b9450945050602085013567ffffffffffffffff811115612da257612da1612630565b5b612dae878288016128e5565b925092505092959194509250565b60008060408385031215612dd357612dd261262b565b5b6000612de185828601612881565b9250506020612df285828601612881565b9150509250929050565b7f4e487b7100000000000000000000000000000000000000000000000000000000600052602260045260246000fd5b60006002820490506001821680612e4357607f821691505b60208210811415612e5757612e56612dfc565b5b50919050565b7f4552433732313a20617070726f76616c20746f2063757272656e74206f776e6560008201527f7200000000000000000000000000000000000000000000000000000000000000602082015250565b6000612eb96021836126fb565b9150612ec482612e5d565b604082019050919050565b60006020820190508181036000830152612ee881612eac565b9050919050565b7f4552433732313a20617070726f76652063616c6c6572206973206e6f7420746f60008201527f6b656e206f776e6572206e6f7220617070726f76656420666f7220616c6c0000602082015250565b6000612f4b603e836126fb565b9150612f5682612eef565b604082019050919050565b60006020820190508181036000830152612f7a81612f3e565b9050919050565b600081905092915050565b6000612f988385612f81565b9350612fa5838584612a8c565b82840190509392505050565b6000612fbe828486612f8c565b91508190509392505050565b7f4552433732313a2063616c6c6572206973206e6f7420746f6b656e206f776e6560008201527f72206e6f7220617070726f766564000000000000000000000000000000000000602082015250565b6000613026602e836126fb565b915061303182612fca565b604082019050919050565b6000602082019050818103600083015261305581613019565b9050919050565b7f4552433732313a20696e76616c696420746f6b656e2049440000000000000000600082015250565b60006130926018836126fb565b915061309d8261305c565b602082019050919050565b600060208201905081810360008301526130c181613085565b9050919050565b7f4552433732313a2061646472657373207a65726f206973206e6f74206120766160008201527f6c6964206f776e65720000000000000000000000000000000000000000000000602082015250565b60006131246029836126fb565b915061312f826130c8565b604082019050919050565b6000602082019050818103600083015261315381613117565b9050919050565b6000613165826126f0565b61316f8185612f81565b935061317f81856020860161270c565b80840191505092915050565b6000613197828561315a565b91506131a3828461315a565b91508190509392505050565b7f4d6174696320616d6f756e74206973206e6f7420656e6f756768000000000000600082015250565b60006131e5601a836126fb565b91506131f0826131af565b602082019050919050565b60006020820190508181036000830152613214816131d8565b9050919050565b7f2e00000000000000000000000000000000000000000000000000000000000000600082015250565b6000613251600183612f81565b915061325c8261321b565b600182019050919050565b60008190508160005260206000209050919050565b6000815461328981612e2b565b6132938186612f81565b945060018216600081146132ae57600181146132bf576132f2565b60ff198316865281860193506132f2565b6132c885613267565b60005b838110156132ea578154818901526001820191506020810190506132cb565b838801955050505b50505092915050565b6000613308828587612f8c565b915061331382613244565b915061331f828461327c565b9150819050949350505050565b6000613338828661327c565b9150613344828561315a565b9150613350828461327c565b9150819050949350505050565b7f7b226e616d65223a202200000000000000000000000000000000000000000000600082015250565b6000613393600a83612f81565b915061339e8261335d565b600a82019050919050565b7f222c226465736372697074696f6e223a20224120646f6d61696e206f6e20746860008201527f65204c6974204e616d652053657276696365222c2022696d616765223a20226460208201527f6174613a696d6167652f7376672b786d6c3b6261736536342c00000000000000604082015250565b600061342b605983612f81565b9150613436826133a9565b605982019050919050565b7f222c226c656e677468223a220000000000000000000000000000000000000000600082015250565b6000613477600c83612f81565b915061348282613441565b600c82019050919050565b7f227d000000000000000000000000000000000000000000000000000000000000600082015250565b60006134c3600283612f81565b91506134ce8261348d565b600282019050919050565b60006134e482613386565b91506134f0828661315a565b91506134fb8261341e565b9150613507828561315a565b91506135128261346a565b915061351e828461315a565b9150613529826134b6565b9150819050949350505050565b7f646174613a6170706c69636174696f6e2f6a736f6e3b6261736536342c000000600082015250565b600061356c601d83612f81565b915061357782613536565b601d82019050919050565b600061358d8261355f565b9150613599828461315a565b915081905092915050565b600060408201905081810360008301526135be8185612750565b905081810360208301526135d28184612750565b90509392505050565b7f4552433732313a207472616e736665722066726f6d20696e636f72726563742060008201527f6f776e6572000000000000000000000000000000000000000000000000000000602082015250565b60006136376025836126fb565b9150613642826135db565b604082019050919050565b600060208201905081810360008301526136668161362a565b9050919050565b7f4552433732313a207472616e7366657220746f20746865207a65726f2061646460008201527f7265737300000000000000000000000000000000000000000000000000000000602082015250565b60006136c96024836126fb565b91506136d48261366d565b604082019050919050565b600060208201905081810360008301526136f8816136bc565b9050919050565b7f4e487b7100000000000000000000000000000000000000000000000000000000600052601160045260246000fd5b6000613739826127ab565b9150613744836127ab565b925082821015613757576137566136ff565b5b828203905092915050565b600061376d826127ab565b9150613778836127ab565b9250827fffffffffffffffffffffffffffffffffffffffffffffffffffffffffffffffff038211156137ad576137ac6136ff565b5b828201905092915050565b60006137c3826127ab565b91507fffffffffffffffffffffffffffffffffffffffffffffffffffffffffffffffff8214156137f6576137f56136ff565b5b600182019050919050565b7f4552433732313a20617070726f766520746f2063616c6c657200000000000000600082015250565b60006138376019836126fb565b915061384282613801565b602082019050919050565b600060208201905081810360008301526138668161382a565b9050919050565b7f4552433732313a207472616e7366657220746f206e6f6e20455243373231526560008201527f63656976657220696d706c656d656e7465720000000000000000000000000000602082015250565b60006138c96032836126fb565b91506138d48261386d565b604082019050919050565b600060208201905081810360008301526138f8816138bc565b9050919050565b7f4e487b7100000000000000000000000000000000000000000000000000000000600052601260045260246000fd5b6000613939826127ab565b9150613944836127ab565b925082613954576139536138ff565b5b828204905092915050565b600061396a826127ab565b9150613975836127ab565b925082613985576139846138ff565b5b828206905092915050565b7f4e487b7100000000000000000000000000000000000000000000000000000000600052603260045260246000fd5b60006139ca826127ab565b91506139d5836127ab565b9250817fffffffffffffffffffffffffffffffffffffffffffffffffffffffffffffffff0483118215151615613a0e57613a0d6136ff565b5b828202905092915050565b7f45524337323155524953746f726167653a2055524920736574206f66206e6f6e60008201527f6578697374656e7420746f6b656e000000000000000000000000000000000000602082015250565b6000613a75602e836126fb565b9150613a8082613a19565b604082019050919050565b60006020820190508181036000830152613aa481613a68565b9050919050565b60006040820190508181036000830152613ac58185612750565b9050613ad46020830184612840565b9392505050565b600081519050919050565b600082825260208201905092915050565b6000613b0282613adb565b613b0c8185613ae6565b9350613b1c81856020860161270c565b613b258161273f565b840191505092915050565b6000608082019050613b456000830187612840565b613b526020830186612840565b613b5f6040830185612b54565b8181036060830152613b718184613af7565b905095945050505050565b600081519050613b8b81612661565b92915050565b600060208284031215613ba757613ba661262b565b5b6000613bb584828501613b7c565b91505092915050565b7f4552433732313a206d696e7420746f20746865207a65726f2061646472657373600082015250565b6000613bf46020836126fb565b9150613bff82613bbe565b602082019050919050565b60006020820190508181036000830152613c2381613be7565b9050919050565b7f4552433732313a20746f6b656e20616c7265616479206d696e74656400000000600082015250565b6000613c60601c836126fb565b9150613c6b82613c2a565b602082019050919050565b60006020820190508181036000830152613c8f81613c53565b905091905056fe4142434445464748494a4b4c4d4e4f505152535455565758595a6162636465666768696a6b6c6d6e6f707172737475767778797a303132333435363738392b2fa26469706673582212205dcbef374d133c37ddbc7b8e94fdedba3dcfeafdf277f283ddb3285d3696dfac64736f6c634300080900333c7376672077696474683d2233303622206865696768743d22333333222076696577426f783d223020302033303620333333222066696c6c3d226e6f6e652220786d6c6e733d22687474703a2f2f7777772e77332e6f72672f323030302f737667223e3c6720636c69702d706174683d2275726c2823636c6970305f315f3229223e3c726563742077696474683d2233303622206865696768743d22333333222066696c6c3d2275726c28237061696e74305f6c696e6561725f315f3229222f3e3c7061746820643d224d3137352e313033203131332e303536433137392e313237203131372e303736203138312e333232203132312e373932203138312e353531203132372e333136433138312e363931203133302e3638203138312e363732203133342e313034203138322e333837203133372e333736433138322e383237203133392e333931203138342e323038203134312e343431203138352e373533203134322e393539433138362e373238203134332e393135203138392e303631203134342e353833203139302e323831203134342e313531433139312e343238203134332e373434203139322e313233203134312e373931203139322e363237203134302e333936433139332e303433203133392e323431203139322e383931203133372e393038203139332e303739203133352e353338433139372e303535203134312e323432203139392e313332203134362e313931203139382e313836203135322e303432433139372e363732203135352e323139203139372e313236203135382e343638203139372e333534203136312e363338433139372e343634203136332e313639203139392e333239203136342e353931203230302e333939203136362e303633433230312e333432203136342e353836203230322e343335203136332e313639203230332e313637203136312e363037433230332e353734203136302e3734203230332e333737203135392e363238203230332e343637203135382e343337433230372e373532203136322e333236203230382e343731203136392e353935203230352e383833203137362e3435433230342e333832203138302e343236203230332e313838203138342e353536203230322e343731203138382e373038433230322e323234203139302e313339203230332e383337203139312e383437203230342e36203139332e343238433230362e333037203139322e333235203230382e393436203139312e353334203230392e3532203139302e303531433231302e353831203138372e333132203231302e343332203138342e313638203231302e383738203138302e343236433231352e303538203138342e323239203231352e393736203138382e363732203231362e363537203139332e323331433231362e393239203139352e303437203231372e333236203139362e38343820323138203139382e373733433231342e313336203230332e383934203230392e393338203230382e383937203230352e323132203231332e373833433230342e313734203231312e383232203230332e363632203230392e3938203230332e313532203230382e313336433230312e383037203230332e323639203139362e363939203139392e333937203139322e313433203139392e393431433139322e3331203230302e363537203139322e373031203230312e333932203139322e353933203230322e303536433139322e323834203230332e393635203139322e303633203230352e393837203139312e313334203230372e363338433139302e393033203230382e303439203138372e323932203230372e3732203138362e373039203230362e383634433138352e363232203230352e323637203138352e3034203230322e393631203138352e333134203230312e303834433138352e363139203139382e393932203138372e323737203139372e313033203138382e303533203139352e3033433139302e323133203138392e323631203138372e393638203138322e353838203138322e393533203137392e353237433138322e333538203138312e313731203138322e313537203138332e303934203138312e3037203138342e333539433137392e393133203138352e373036203137372e393137203138362e3433203137362e323838203138372e343236433137352e333435203138362e303332203137332e363537203138342e363632203137332e363034203138332e3234433137332e3437203137392e363132203137332e373536203137352e3931203137342e343338203137322e333331433137352e353839203136362e323939203137332e373339203136312e353031203136382e333031203135382e313534433136322e333938203135342e3532203135372e303532203135302e353731203135352e313239203134332e383232433135352e303933203134332e363933203135342e353731203134332e363834203135332e363937203134332e343932433135332e313331203134342e363633203135322e343032203134352e383839203135312e393332203134372e313934433135302e303439203135322e343138203135322e303637203135362e393138203135342e383031203136312e343234433135382e373031203136372e383439203135372e303838203137322e393335203135302e343531203137362e333037433134362e393832203137382e3037203134342e363131203137372e323334203134332e393136203137332e353535433134332e343534203137312e313034203134332e383239203136382e353136203134332e383239203136352e313138433134322e303639203136372e393539203133392e393338203137302e313631203133392e333034203137322e363837433133382e303631203137372e363336203133372e343535203138322e3735203133362e393633203138372e383238433133362e363034203139312e353336203133352e373834203139342e383335203133322e303437203139362e373938433132382e3837203139382e343636203132362e383831203139372e353036203132362e343334203139342e313738433132362e323431203139322e373339203132362e313535203139312e323837203132352e393235203138382e383136433132302e343138203139352e333737203132302e3132203230312e363434203132312e303036203230382e323336433132312e333731203231302e393535203132312e3334203231332e373736203132302e393738203231362e343931433132302e383532203231372e343335203131392e313836203231382e323032203131382e323233203231392e303439433131372e343633203231382e303635203131362e333531203231372e313732203131362e303235203231362e303736433131352e353635203231342e353239203131352e363835203231322e383332203131352e343739203231302e323037433131312e353734203231362e343138203131312e333133203231382e303739203131322e30303720323239433130372e313736203232362e363538203130322e333435203232342e3331352039372e31393634203232312e3835334339372e30313435203231392e3839372039372e34323637203231382e3033352039372e32333632203231362e3232394339362e35363539203230392e3837362039372e31373031203230332e3831203130312e303432203139372e313933433130312e393033203230302e3331203130312e393633203230322e3732203130332e323031203230342e333635433130342e333436203230352e383835203130362e373532203230362e353835203130382e363033203230372e363437433130392e333533203230352e383135203131302e393337203230332e383638203131302e363637203230322e313737433131302e323134203139392e333434203130382e313032203139362e373533203130372e3535203139332e393136433130362e363432203138392e323435203130362e313832203138342e343634203130362e303539203137392e373138433130362e303233203137382e333039203130372e3735203137362e3836203130392e323036203137342e353933433131302e303438203137362e393033203131302e313037203137382e3736203131312e303833203137392e333933433131332e3231203138302e373733203131352e393433203138322e353537203131382e313736203138322e323937433132312e343831203138312e393133203132322e323533203137382e373238203132312e323831203137352e393635433132302e343632203137332e363336203131382e393036203137312e353139203131372e353837203136392e333535433131322e323831203136302e363436203131352e303038203135302e373537203132332e383932203134362e363938433132342e353637203134362e3339203132352e333534203134362e323934203132362e383432203134352e39433132362e343836203134372e343336203132352e393437203134382e343931203132362e3038203134392e343636433132362e333138203135312e323133203132362e363635203135332e303733203132372e353934203135342e353434433132372e393134203135352e3035203133302e363834203135352e303332203133312e333138203135342e333838433133322e363634203135332e303231203133342e32203135312e303335203133342e303836203134392e333938433133332e393332203134372e313932203133322e323934203134352e303737203133312e323937203134322e393231433132382e363535203133372e323034203133302e343836203133302e333239203133352e393334203132362e3136433133362e363135203132382e313138203133362e383831203133302e323437203133382e303434203133312e373931433133382e393738203133332e303331203134312e313633203133342e333835203134322e343931203133342e313539433134332e3637203133332e393538203134352e313331203133312e363938203134352e323338203133302e323637433134352e343736203132372e303738203134352e323336203132332e373934203134342e363731203132302e363239433134332e333732203131332e333631203134352e323134203130372e363034203135322e343937203130332e373634433135382e303938203130302e3831203136322e3439352039362e37353734203136332e323738203930433136372e3539382039332e323733203136382e3537392039392e34383034203136362e323734203130342e323937433136352e3537203130352e373638203136342e353735203130372e313136203136332e373538203130382e353432433136302e343635203131342e3239203136302e393533203131372e363533203136362e333432203132312e363737433136372e3938203132322e39203137312e303136203132342e3035203137322e353434203132332e343139433137342e303831203132322e373834203137342e383039203131392e393535203137352e333636203131372e393631433137352e363839203131362e38203137342e393739203131352e333839203137342e383034203131332e363633433137342e383734203131332e323334203137352e313033203131332e303536203137352e313033203131332e3035365a222066696c6c3d2223464643393239222f3e3c672066696c7465723d2275726c282366696c746572305f645f315f3229223e3c7061746820643d224d39372e30323435203232314338362e33323832203231342e3331362037372e38323933203230362e3031352037342e363236203139342e3235394337312e38303438203138332e3930342037322e35383738203137332e3635382037372e35303039203136332e3835394337382e30343533203136322e3737342037392e35393135203136322e3130322038302e36373331203136312e3233384338312e33363036203136322e3439382038322e33363232203136332e3639392038322e36363737203136352e3033314338332e32333739203136372e3531392038322e39303835203137302e3236372038332e39333531203137322e3534314338342e343936203137332e3738332038372e31383935203137352e3036362038382e36393539203137342e3837344339302e30353139203137342e3730312039322e32303233203137322e3434352039322e30373933203137312e3237344339312e37303135203136372e36382039302e38333337203136342e3030392038392e33363537203136302e3635344338362e35343631203135342e3230392038342e39343134203134372e3737372038362e35313634203134302e3833354338372e34303032203133362e3933392039302e38383036203133332e3332332039352e31363133203133322e3639374339352e31363133203133342e3435362039352e30393637203133362e3136382039352e31373436203133372e3837354339352e33343331203134312e3536342039382e30373834203134332e393538203130322e303331203134332e383134433130362e323237203134332e363631203130382e313535203134312e333535203130372e343638203133372e383339433130362e383239203133342e353734203130352e383337203133312e323038203130342e313338203132382e3330334339392e33323131203132302e3036382039392e33353537203131322e303732203130342e363835203130342e313834433130372e343438203130302e303934203131342e3036382039372e35313535203131392e31332039382e32363032433131382e3437203130302e343233203131372e343339203130322e353435203131372e323735203130342e373231433131372e313335203130362e353739203131352e383637203130392e333632203131392e363033203130392e393135433132322e3333203131302e333139203132362e383133203130372e323834203132362e36203130342e373433433132362e333832203130322e313336203132352e3638362039392e33343836203132342e3332332039372e303733433131392e3234372038382e36303031203132332e3032322038312e343638203132382e3130372037342e353731433132382e3937332037332e33393632203133312e3136332037332e30323635203133332e3233372037322e30353232433133332e3834332037372e35383438203133312e3830372038332e35333132203133392e3338342038352e35313935433134352e3132392037392e39333732203134332e3437312037332e30363635203134322e3434322036362e37393532433134312e3132362035382e37363139203134342e3431312035312e30373631203135322e3335342034372e343136433135372e3937362034342e38323536203136332e3530392034322e30353934203136362e3539352033362e373431433136372e3739342033342e363734203136382e3437382033322e33363036203136392e343634203330433137352e3330332032392e39383734203137342e3638342033342e34323439203137352e3433382033372e35323238433137372e3132342034342e34343333203137322e3932372034392e38383032203136392e3136392035352e32383436433136332e3539372036332e32393935203136382e3730372037302e32363338203137352e3937362037342e30363236433137382e3632322037352e34343531203138322e30342037322e36303333203138322e3135332036382e38373231433138322e32352036352e36333634203138312e3836382036322e33383838203138312e3635322035382e32363739433138322e3837392035392e31353735203138342e3031362035392e36313335203138342e3531372036302e34303235433138392e3236342036372e38383836203139332e3031372037352e363239203139312e3833362038342e36323938433139312e3535362038362e37373032203139322e3031342038382e39383834203139312e3735382039312e31333431433139312e3038392039362e37343938203139342e3431362039392e38393039203139392e333431203130322e313133433230352e3032312039392e38303436203230322e3730352039352e31363636203230332e3634392039302e31353833433230352e3137382039312e33313737203230362e3633392039312e39313832203230372e3136372039322e393233433230382e36332039352e37303938203231302e3631362039382e36333332203231302e373339203130312e3536433231302e393836203130372e343033203231302e3633203131332e333632203230392e353539203131392e313235433230382e373537203132332e343338203230382e383237203132372e313731203231312e363539203133302e393532433231372e353639203132382e303931203231322e343432203132312e393531203231362e383539203131382e363539433231372e353731203131392e323735203231382e393535203131392e383937203231392e3233203132302e373939433232312e3634203132382e363835203232342e333339203133362e343139203231382e383036203134342e343632433231352e393937203134382e353436203231342e353636203135332e3532203231332e313732203135382e323533433231322e353135203136302e343832203231332e343133203136332e303839203231332e363331203136352e383331433232342e383437203136332e333732203232312e383535203135352e363936203232322e3539203134382e3434433232342e323538203134392e333634203232352e383134203134392e373633203232362e353231203135302e363933433233312e343635203135372e32203233322e353737203136342e343631203233312e373533203137322e323332433233302e373134203138322e303335203232342e383836203138392e383633203231392e313734203139382e313432433231382e333232203139362e353136203231372e393233203139342e373434203231372e363439203139322e393537433231362e393633203138382e343732203231362e303339203138342e31203231312e383239203138302e333539433231312e333739203138342e3034203231312e353239203138372e313334203231302e343631203138392e383239433230392e383833203139312e323838203230372e323236203139322e303636203230352e353036203139332e313532433230342e373338203139312e353936203230332e313133203138392e393135203230332e333632203138382e353037433230342e303835203138342e343232203230352e323837203138302e333539203230362e373939203137362e343436433230392e343035203136392e373032203230382e3638203136322e3535203230342e333635203135382e373234433230342e323735203135392e383936203230342e343733203136302e393839203230342e303633203136312e383433433230332e333236203136332e3338203230322e323235203136342e373733203230312e323736203136362e323237433230302e313938203136342e373739203139382e3332203136332e3338203139382e323039203136312e383733433139372e393739203135382e373534203139382e3533203135352e353537203139392e303437203135322e34333243323030203134362e363735203139372e393038203134312e383035203139332e393034203133362e313933433139332e373135203133382e353235203139332e383638203133392e383337203139332e343439203134302e393733433139322e393432203134322e333435203139322e323431203134342e323638203139312e303836203134342e363638433138392e383537203134352e303932203138372e353038203134342e343336203138362e353237203134332e343935433138342e3937203134322e303032203138332e3538203133392e393835203138332e313337203133382e303032433138322e343137203133342e373832203138322e343336203133312e343134203138322e323935203132382e313034433138322e303634203132322e363639203137392e383534203131382e303239203137352e373332203131332e393432433137352e343635203131332e373235203137352e323636203131332e3634203137352e303637203131332e353535433137352e313538203131332e383435203137352e323439203131342e313335203137352e333835203131342e373539433137352e363736203131362e3337203137362e333932203131372e373537203137362e303636203131382e39433137352e353036203132302e383632203137342e373732203132332e363435203137332e323234203132342e3237433137312e363835203132342e383931203136382e363238203132332e373539203136362e393739203132322e353536433136312e353531203131382e353936203136312e3036203131352e323837203136342e333736203130392e363333433136352e313939203130382e323239203136362e323031203130362e393033203136362e3931203130352e343536433136392e323331203130302e373137203136382e3234332039342e36303933203136332e3839322039312e333839433136332e3130342039382e30333736203135382e363736203130322e303235203135332e303336203130342e393331433134352e373031203130382e3731203134332e383436203131342e333733203134352e313534203132312e353234433134352e373234203132342e363338203134352e393635203132372e3837203134352e373235203133312e303038433134352e363138203133322e343135203134342e313436203133342e363339203134322e393539203133342e383337433134312e363231203133352e303539203133392e343231203133332e373237203133382e343831203133322e353037433133372e333039203133302e393838203133372e303432203132382e383933203133362e333535203132362e393636433133302e383639203133312e303638203132392e303235203133372e383332203133312e363836203134332e343538433133322e3639203134352e353739203133342e3334203134372e3636203133342e343935203134392e3833433133342e3631203135312e343431203133332e303633203135332e333935203133312e373037203135342e3734433133312e303638203135352e333733203132382e323739203135352e333932203132372e393537203135342e383933433132372e303232203135332e343436203132362e363731203135312e363136203132362e343332203134392e383937433132362e323938203134382e393338203132362e383431203134372e39203132372e313939203134362e333839433132352e373031203134362e373736203132342e393038203134362e383731203132342e323238203134372e313734433131352e323832203135312e313638203131322e353336203136302e383938203131372e383739203136392e343636433131392e323037203137312e353935203132302e373734203137332e363738203132312e353939203137352e3937433132322e353738203137382e363838203132312e383031203138312e383232203131382e343732203138322e32433131362e323234203138322e343535203131332e343732203138302e37203131312e3333203137392e333433433131302e333436203137382e373139203131302e323837203137362e383933203130392e343338203137342e3632433130372e393732203137362e3835203130362e323333203137382e323735203130362e3237203137392e363632433130362e333934203138342e333332203130362e383537203138392e303336203130372e373731203139332e363331433130382e333237203139362e343233203131302e343534203139382e393732203131302e3931203230312e3736433131312e313832203230332e343233203130392e353837203230352e333339203130382e383332203230372e313431433130362e393638203230362e303937203130342e353434203230352e343038203130332e333931203230332e393132433130322e313434203230322e323934203130322e303834203139392e393232203130312e323137203139362e3835364339372e33313739203230332e3336362039362e37303935203230392e3333342039372e33383435203231352e3538354339372e35373634203231372e3336322039372e31363133203231392e3139342039372e30323435203232315a222066696c6c3d2223463637453033222f3e3c2f673e3c7061746820643d224d3131332e343033203233302e3236433131322e353434203231392e3131203131322e383036203231372e3436203131362e373034203231312e323839433131362e393039203231332e383937203131362e3739203231352e353832203131372e3235203231372e313139433131372e353735203231382e323038203131382e363835203231392e303936203131392e343434203232302e303734433132302e343035203231392e323332203132322e303639203231382e3437203132322e313935203231372e353332433132322e353536203231342e383334203132322e353837203231322e303331203132322e323232203230392e3333433132312e333338203230322e3738203132312e363336203139362e353533203132372e313334203139302e303334433132372e333634203139322e343839203132372e3435203139332e393332203132372e363432203139352e333631433132382e303838203139382e363639203133302e303734203139392e363233203133332e323436203139372e393635433133362e393737203139362e303135203133372e373936203139322e373337203133382e313534203138392e303532433133382e363435203138342e303037203133392e3235203137382e393236203134302e343931203137342e303038433134312e313235203137312e343938203134332e323532203136392e333131203134352e303039203136362e343837433134352e303039203136392e383634203134342e363335203137322e343335203134352e303937203137342e3837433134352e3739203137382e353236203134382e313537203137392e333536203135312e363231203137372e363035433135382e323437203137342e323534203135392e383538203136392e323031203135352e393634203136322e383137433135332e323334203135382e3334203135312e323139203135332e383638203135332e303939203134382e363739433135332e353639203134372e333831203135342e323937203134362e313634203135342e38363220313435433135352e373334203134352e313931203135362e323535203134352e32203135362e323932203134352e333238433135382e323132203135322e303334203136332e353439203135352e393537203136392e343432203135392e353638433137342e383732203136322e383934203137362e373139203136372e3636203137352e3537203137332e363534433137342e383839203137372e323131203137342e363033203138302e383839203137342e373337203138342e343934433137342e3739203138352e393037203137362e343735203138372e323638203137372e343137203138382e363533433137392e303434203138372e363633203138312e303336203138362e393434203138322e313931203138352e363036433138332e323736203138342e333439203138332e343737203138322e343338203138342e303731203138302e383034433138392e303738203138332e383436203139312e3332203139302e343736203138392e313633203139362e323038433138382e333838203139382e323638203138362e373333203230302e313435203138362e343238203230322e323234433138362e313535203230342e303838203138362e373336203230362e333739203138372e383232203230372e393636433138382e343034203230382e383137203139322e303039203230392e313434203139322e3234203230382e373336433139332e313637203230372e303935203139332e333837203230352e303836203139332e363936203230332e3139433139332e383034203230322e353239203139332e343133203230312e373939203139332e323437203230312e303838433139372e373936203230302e353437203230322e383935203230342e333935203230342e323339203230392e323331433230342e373438203231312e303632203230352e323538203231322e38393320323036203231342e393836433139352e373431203232352e393538203138322e3637203233322e333032203136372e323734203233342e3234433135392e313435203233352e323634203135302e383037203233362e343632203134322e373237203233352e383139433133322e393137203233352e303337203132332e323831203233322e333936203131332e343033203233302e32365a222066696c6c3d2223464146303739222f3e3c2f673e3c646566733e3c66696c7465722069643d2266696c746572305f645f315f322220783d2236392220793d223330222077696474683d2231363722206865696768743d22313939222066696c746572556e6974733d227573657253706163654f6e5573652220636f6c6f722d696e746572706f6c6174696f6e2d66696c746572733d2273524742223e3c6665466c6f6f6420666c6f6f642d6f7061636974793d22302220726573756c743d224261636b67726f756e64496d616765466978222f3e3c6665436f6c6f724d617472697820696e3d22536f75726365416c7068612220747970653d226d6174726978222076616c7565733d2230203020302030203020302030203020302030203020302030203020302030203020302031323720302220726573756c743d2268617264416c706861222f3e3c66654f66667365742064793d2234222f3e3c6665476175737369616e426c757220737464446576696174696f6e3d2232222f3e3c6665436f6d706f7369746520696e323d2268617264416c70686122206f70657261746f723d226f7574222f3e3c6665436f6c6f724d617472697820747970653d226d6174726978222076616c7565733d22302030203020302030203020302030203020302030203020302030203020302030203020302e32352030222f3e3c6665426c656e64206d6f64653d226e6f726d616c2220696e323d224261636b67726f756e64496d6167654669782220726573756c743d22656666656374315f64726f70536861646f775f315f32222f3e3c6665426c656e64206d6f64653d226e6f726d616c2220696e3d22536f75726365477261706869632220696e323d22656666656374315f64726f70536861646f775f315f322220726573756c743d227368617065222f3e3c2f66696c7465723e3c6c696e6561724772616469656e742069643d227061696e74305f6c696e6561725f315f32222078313d22313533222079313d2230222078323d22313533222079323d2233333322206772616469656e74556e6974733d227573657253706163654f6e557365223e3c73746f702073746f702d636f6c6f723d2223453638373433222f3e3c73746f70206f66667365743d2231222073746f702d636f6c6f723d2223454530303030222f3e3c2f6c696e6561724772616469656e743e3c636c6970506174682069643d22636c6970305f315f32223e3c726563742077696474683d2233303622206865696768743d22333333222066696c6c3d227768697465222f3e3c2f636c6970506174683e3c2f646566733e203c7465787420783d223530252220746578742d616e63686f723d226d6964646c652220793d223330302220666f6e742d73697a653d223237222066696c6c3d22776869746522203e",
  "linkReferences": {},
  "deployedLinkReferences": {}
}